:100000000200F10200EE75230175244478017900A5
:100010007A007B257D057C001201D4780179057A70
:10002000007B2A7D057C001201D47801790A7A00D0
:100030007B2F7D207C001201D475803875A001755E
:10004000A00075808075A00175A000752000E520D6
:1000500024FC5002800280030200EA742AA920785E
:100060000029F987B0752100E52124FC50028002A7
:10007000800280697425A921780029F9E7B590519B
:10008000E52175F004A42520500205F0A8F0A9E0B0
:10009000E9C333F9E833F8742F29F9872309872452
:1000A000752200E52224FF5002800280028022E5B2
:1000B000222524F582E43523F58312014BF5807562
:1000C000A00375A0020522E52224FF5002800280D1
:1000D000DE0521E52124FC5002800280970520E501
:1000E0002024FC5002800302005B02004B2202002D
:0400F000060201FF04
:10010000FEFDFBF7001E1D1B170001420140013ED2
:100110000130013C013A0138012E0136013401322F
:10012000012C014701450149012A440043004200D6
:100130004100390038003700360035003400330004
:10014000320031003030002A002300E5836003E4F0
:100150009322A882E622E5836004E4938003A882C8
:10016000E6F822E5836004E4938003A882E6F9229E
:10017000E5836004E4938003A882E6FA22E58360C5
:1001800004E4938003A882E6FB22E5836004E49301
:100190008003A882E6FC22E5836004E4938003A840
:1001A00082E6FD22E5836004E4938003A882E6FEF4
:1001B00022E5836004E4938003A882E6FF2289821B
:1001C00088838B00EC4D6036E4E0F608A31DBDFF8C
:1001D000F31C80F0B800118B00EC4D6021E7F609AC
:1001E000081DBDFFF41C80F1898288838B00EC4DD3
:1001F000600CE493F608A31DBDFFF31C80F022E41D
:10020000F5D075814F78207A2FF608DAFC120003BA
:03021000020000E9
:00000001FF
