:1000000002010380108D998D2480003099028002B6
:1000100080F9C2992280EE801F53877F5389BF5396
:1000200089EF438920758DFDD28E759800D29BC2D1
:100030009CC29DD29ED29F2280DF0200EC752200DE
:10004000752330746B852283852382F0746C85223E
:1000500083852382A3F07465852283852382A3A3ED
:10006000F07473852283852382A3A3A3F07474851F
:100070002283852382A3A3A3A3F0746F85228385A3
:100080002382A3A3A3A3A3F0E5232406F582E522FC
:100090003400F5837476F0E5232407F582E52234F5
:1000A00000F5837461F0120017E4F520F521E521D5
:1000B00024FBE5206480347F500280028002802986
:1000C000E5212523F582E5203522F583E0FD1200A8
:1000D000030521E52170020520E52124FBE52064CC
:1000E00080347F5002800280D780BE2202003DE42F
:1000F000F5D075812578207A05F608DAFC12003AE9
:060100000200000200EF06
:00000001FF
